:1000000000000120750300005D0300005F03000095
:1000100061030000630300006503000000000000AE
:100020000000000000000000000000006703000066
:1000300069030000000000006B0300006D03000076
:100040006F0300006F030000AD23000009240000CF
:100050006F0300006F0300006F0300006F030000D8
:100060006F0300006F0300006F0300006F030000C8
:100070006F0300006F0300006F0300006F030000B8
:100080006F0300006F0300006F0300006F030000A8
:100090006F0300006F0300006F0300006F03000098
:1000A0006F0300006F0300006F0300006F03000088
:1000B0006F0300006F03000000000000000000005C
:1000C0006F0300006F0300006F0300006F03000068
:1000D0006F0300006F0300006F03000000000000CA
:1000E0000000000000000000000000000000000010
:1000F0000000000000000000000000000000000000
:1001000000000000000000000000000000000000EF
:1001100000000000000000000000000000000000DF
:1001200000000000000000000000000000000000CF
:1001300000000000000000000000000000000000BF
:1001400000000000000000000000000000000000AF
:10015000000000000000000000000000000000009F
:10016000000000000000000000000000000000008F
:10017000000000000000000000000000000000007F
:10018000000000000000000000000000000000006F
:10019000000000000000000000000000000000005F
:1001A000000000000000000000000000000000004F
:1001B000000000000000000000000000000000003F
:1001C000000000000000000000000000000000002F
:1001D000000000000000000000000000000000001F
:1001E000000000000000000000000000000000000F
:1001F00000000000000000000000000000000000FF
:10020000354936480A1A02D0072291438D463449AF
:1002100034480A1A06D00722914381F30988022242
:1002200082F3148830483149314A00F044F83148AB
:100230003149324A00F03FF831483249324A00F041
:100240003AF832483249334A00F035F832483349F7
:10025000334A00F030F833483349344A00F02BF881
:1002600033483449344A00F026F8344834490022EF
:1002700000F02CF833483449002200F027F83348C6
:100280003349091A082902DB002202604160314A21
:1002900090471F481F49884205D00268043003B4C4
:1002A000904703BCF7E700208646EC46002000217B
:1002B000294A9047FEE7884207D0521A05D00378B2
:1002C00001300B700131013AF9D17047884202D0F8
:1002D00002700130FAE770470000012000E00020C2
:1002E0000000012000000120C04F0000000000209D
:1002F00040000020D0030000D0030000E4490000CB
:10030000C04F00000000002000000020304A000024
:10031000304A0000304A0000304A0000304A0000F5
:10032000304A0000304A0000304A0000BE4F000052
:10033000005000004000002040000020400000204D
:10034000DA0B0020DC0B0020DC0B0020DC0B002093
:10035000DC2B00209D03000021310000FEE7FEE7BA
:10036000FEE7FEE7FEE7FEE7FEE7FEE7FEE7FEE765
:1003700000F002B8FFF7FCBF0F484FF007018843B9
:1003800085460E4880470E48016841F470010160BF
:10039000BFF34F8FBFF36F8FFFF732BF09480A4992
:1003A0000A4A884207D0521A05D0037801300B70F0
:1003B0000131013AF9D1704700000120F9450000F0
:1003C00088ED00E0304A000000000020000000201E
:1003D000F0B595B01D46164608460C4601F0F4FEF1
:1003E0001A9B0D93CDE9086500252B46082205A927
:1003F00020460A958DF82C500C9501F001FF079BC3
:100400000293069B03939DF814308DF8115003F06E
:100410000302012A1DD1BDF81420059DC3F3C203B8
:10042000C2F383168DF81030B20008230EA92046BF
:1004300001F0E6FEC5F3952508AB0093324602AB0A
:100440000EA9284600F026FB204601F0C1FE15B09B
:10045000F0BD022AF8D1BDF81650C3F3C203C5F3AC
:1004600089158DF810300827082D2E4628BF08263C
:100470003B4632460EA9204601F0C2FEAD1B08AB3A
:1004800002AA31460EA8374400F068FB002DEBD1DC
:10049000DAE7000008B500F02BFC0448042100F066
:1004A00063FA034B01225A7108BD00BF0C4A0000D9
:1004B00000000020037813F0040216D003F00303B9
:1004C000012B03D0022B09D0012070470A68008855
:1004D0000232C0F3831002440A60F5E70B684288D9
:1004E000023303EB92130B60EEE7104670470000F7
:1004F0002DE9F04FDFF810A10F4685B00446861CA9
:100500000020154601F024FADAF804203A60DAF8FF
:10051000083003F580739B1A0AF21C470AF58369B9
:100520000AF21448B34219D30020002D68D004F019
:100530000F039B0143F0050363F30F00DAF8043067
:10054000DAB2033233444AF822000020CAF80430F9
:1005500001F000FA012005B0BDE8F08F0121384616
:1005600001F01DFA484601F032FA404601F02FFA38
:10057000DAF808000090C0B203300AEB8000694648
:10058000FFF798FF009B30BBDAB20AEB8202D1681A
:1005900001919A1C0133DBB20AEB83030092D3F87A
:1005A0000CB001F00303012B22D0022B15D083469F
:1005B000404601F00FFA10B1009BCAF808305946C6
:1005C000384601F0ECF9DAF80830DAF8042003F5DF
:1005D00080739B1AA6E7D8B2CEE7BDF80630C3F306
:1005E000891303334FEA1B4B02EB93030093DFE7BE
:1005F000BDF80430C3F383134FEA1B4B1344F5E7F4
:10060000A40544F0060099E710010020064B0748B6
:1006100010B501221A7001F090FD044610B904488B
:1006200001F0F8FD204610BD100100201C4A00001A
:10063000584A000030B50A4C71B10A4A0A49121BE7
:10064000D20800239A4201D1002030BD31F8235056
:10065000854202D00133F5E7034654F83300F4E74E
:10066000E44900000C4A000000000020094B013959
:1006700003EBC000032909D8DFE801F00A020406F1
:100680000420704700797047407970470020704718
:1006900002207047E4490000034BD3E90130C31A3C
:1006A00058425841704700BF100100202DE9FF411A
:1006B000FFF7F2FF0546002840F0E980754CC4F8CA
:1006C0001804BFF34F8FA3680093DBB2033304EB2E
:1006D00083006946FFF7EEFE009B18B1D4F818249A
:1006E000002A5AD0DAB2991C013304EB8202DBB241
:1006F00004EB8303D268DB68029302F00303022B4E
:100700000192009154D1BDF806306348C3F38917B4
:10071000502F3E4628BF502606F1080166F38F137E
:10072000C1F30901ADF8063001F01FFD05460028B0
:1007300000F0988001F048FD0023082201A9284616
:1007400001F054FD0099CB43DBB20133C9B2033150
:10075000B6EB830F4FEA830204EB810125D95FFAE0
:1007600082F80823A6EB0806284601F03FFDF6B202
:1007700008F10803494903F0FC033246284601F01A
:1007800035FD009B033703EB97070097D4F8183427
:10079000002B43D1D4F8106453E062689A4294D895
:1007A000A260284604B0BDE8F08108233246E5E7A0
:1007B000012B57D1BDF804303748C3F38311062904
:1007C00028BF062161F38913023101F00F0189006E
:1007D000ADF8043001F0C9FC0546002842D001F014
:1007E000F3FC0023082201A9284601F0FFFC0026A3
:1007F000BDF80420C2F38312B300964203F108034C
:10080000C4D200994A1CC9B20331009204EB8101A1
:100810000422284601F0EAFC0136E9E7284601F007
:10082000D7FCFFF739FF80F00100C5B2B9E7F368E4
:100830005B7923B1336829461B6830469847F368D3
:100840001E68002EF3D1284601F0C2FC304601F0AC
:100850007FF8D4F818340BB9009BA360002001F096
:1008600079F8DEE7D4F8104454B90D4B0D480E4921
:10087000C01AC008000440F0020000F05DF8D0E7A4
:10088000236820469B689847E3681C68ECE70025CE
:1008900087E700BF100100201C4A00001C01002057
:1008A000E4490000044A0000414A00002DE9F347F2
:1008B00004460E46924601A9012218469946FFF7C2
:1008C00017FE1B4F10B3019D4FF00008AA1CC8452E
:1008D00008EB020123D11748002101F03DF880F315
:1008E0001000000440EA1440E4006B1C04F03804DB
:1008F000DBB2EDB244F0010407EB8303033544EAB5
:10090000881444EA8624D86047F825403B781BB118
:10091000FFF7CCFE0028FBD102B0BDE8F087C9B2DA
:1009200007EB81015AF82830CB6008F10108CEE7C7
:10093000100100202C05002000231A46FFF7B6BF47
:1009400007B50123019201AAFFF7B0FF03B05DF8DC
:1009500004FB07B5CDE9002302236A46FFF7A6FF93
:1009600003B05DF804FB000030B50F4CD4F8102440
:1009700003460020114631B9D96808714AB9C4F854
:1009800010340A6030BDC9680D79854206D0096807
:10099000F1E7D26814680C601360F3E701300A28AD
:1009A000E8D14FF0FF30EDE71001002038B5084BDB
:1009B0000125D3F810441D7004B938BDE3685D719A
:1009C000236820465B689847E3681C68F4E700BF2B
:1009D0001001002030B5C38885B004460D4633B100
:1009E000144A00921449154A284601F09AF9217ACE
:1009F00005291DD0637A4BB1A088FFF737FE104B55
:100A0000104953F82020284601F08BF9227A0E4B2A
:100A1000A08853F8222003920021FFF70BFE039ACF
:100A20000A490346284605B0BDE8304001F079B9CF
:100A300005B030BD844A00006C4A0000644A0000E2
:100A4000F04A0000CE4C0000144B0000894A000020
:100A500007B503460846197A052911D05B7A2BB1F0
:100A6000094A0A49019001F05CF90198084901908E
:100A700001F057F9019803B05DF804EB01F046B9B5
:100A8000002AF8D0F2E700BF844A0000CE4C0000F4
:100A9000814A00002DE9F04385B01F460C9D0023DC
:100AA00095F80C902B7306460C469046294638461E
:100AB000FFF790FFB8F1060F09D8DFE808F004123D
:100AC000181F283340003146284601F02AF9002239
:100AD00029463846FFF7BCFF85F80C9005B0BDE805
:100AE000F08322683146284601F01BF9EFE7D4E98C
:100AF00000233146284601F014F9E8E7A368009383
:100B00003146D4E90023284601F00BF9DFE7E3681A
:100B10000193A36800933146D4E90023284601F0ED
:100B200000F9D4E723690293E3680193A368009373
:100B30003146D4E90023284601F0F3F8C7E763699A
:100B4000039323690293E3680193A36800933146FA
:100B5000D4E90023284601F0E4F8B8E708292DE994
:100B6000F74F80460E4617461C463DD800251B7B96
:100B70002573214610460193FFF72CFFDFF88CA068
:100B8000DFF88CB0AE4232D918F80520594620461D
:100B900001F0C7F80135082DF4D11B49DFF874A026
:100BA000DFF874B0204601F0BCF84FF000094E4564
:100BB00024D918F809507E2D1ED8284603F0B4FE1B
:100BC000002814BF2A462E225946204601F0A9F8D3
:100BD00009F10109B9F1080FE9D10122214638468E
:100BE000FFF736FF019B237303B0BDE8F08F51463A
:100BF000204601F096F8CDE72E22E5E75146204643
:100C000001F08FF8E4E700BF9D4A0000994A000018
:100C1000934A00009B4A00009F4A00007047000072
:100C200007B5044B0093044A4023FFF7D1FB03B000
:100C30005DF804FB7D0C0000C905002030B50C4DAB
:100C40000FCD89B06C460FC495E80F0084E80F0003
:100C50000623084800930022694601F069FB08B1A9
:100C600000F082F8044B00221A7009B030BD00BFBA
:100C7000284B000008000020C805002038B50D48AA
:100C80000D4C0E4D002323700378EB5CD2B263B1A0
:100C9000043002F0F7F908B100F066F8084B1A7852
:100CA00012B12378002BFBD038BD0C3001F098FF37
:100CB000F1E700BF0800002009060020940600208C
:100CC000C805002008B50848084A0378D35C33B14A
:100CD000043002F03BF9BDE80840FFF7AFBF0C302D
:100CE00001F008FFF7E700BF08000020940600208D
:100CF000FFF7A4BF044B1A5C012393404FF0A042BE
:100D0000C2F80835704700BF544B000008B50020FA
:100D1000FFF7F0FF0120FFF7EDFF0220FFF7EAFFEA
:100D2000BDE808400320FFF7E5BFC20708B501464C
:100D30000CD54FF0A0430322C3F84427C3F848273B
:100D4000C3F84C27C3F85027FFF7E0FF8B070AD5FD
:100D50004FF0A0430C22C3F83427C3F83827C3F858
:100D60003C27C3F8402708BD1FB50021039001AA06
:100D700044F20100CDE9011100F004F805B05DF87E
:100D800004FB000038B572B6FFF710FEFFF78EFCCB
:100D90000028FBD1104B114C114D1249E41AE40804
:100DA000240444F00100FFF7C7FDD5F8F030DB075D
:100DB00000D500BE0C4944F00200FFF7BDFDBFF3B3
:100DC0004F8FEA68094B02F4E0621343EB60BFF314
:100DD0004F8F00BFFDE700BFE4490000044A000058
:100DE00000ED00E0584B0000644B00000400FA05E1
:100DF00030B50D4C94F858500124AC404FF0A0454C
:100E000085B0C5F80C45CDE90001CDE902230748BE
:100E10000022694601F048FC20B105B0BDE8304031
:100E2000FFF7A2BF05B030BD0C060020784B0000D4
:100E3000F8B52C4B93F82340002C50D146B2002E2D
:100E400041DB012583F823501D1900F07F0785F849
:100E50002870651C53FA85F50F0E85F82870A51CBF
:100E600053FA85F50F0C85F82870E51C53FA85F5C3
:100E70000F0A85F82870251D53FA85F5402885F856
:100E800028102AD048280CBF8721FF21023A012AC6
:100E900094BF0522012283F82420002E04F10504CA
:100EA00053FA84F4A8BF93F824300F4A84F828102A
:100EB000B8BF01230E33A2F11000DBB20621FFF709
:100EC00097FF0020F8BD022483F8234077249C621A
:100ED0004FF47F449C850624B6E79521D6E7112080
:100EE000F0E700BF0C060020440600202DE9F8437F
:100EF000524CE68B40F2D915AE4238D0B6F5ED7FB4
:100F000008D2A6B140F2C715AE4229D00023E38330
:100F1000032055E0B6F5F07F4FF0000109D0B6F59B
:100F2000F67FF3D184F823101970E18342E0A58A9B
:100F3000E582E68AFF255EB9414A84F828500223FB
:100F40000121A2F11000FFF753FF4FF4F67368E0A0
:100F5000002684F8285003252684268384F823500D
:100F600044F62065042794F82360032E0FD0238BCA
:100F7000934243D3E38A324A013BE38201210223B5
:100F8000A2F11000FFF734FF4FF4F07349E0268C14
:100F90000136B6B2AE4226840ED88446002943D02C
:100FA00010F8016BFF2E0DD0FE2E0ED005221A7008
:100FB0000023E383022003E0022018700023E38370
:100FC000BDE8F8830139C9B2E7E74E1EF1B291429C
:100FD0000E4684F8237028BF16464FF00008464599
:100FE000D4F80CE003D826837644E660BBE71CF80F
:100FF000019F0EF8089008F10108F0E7D51AADB28C
:10100000F02D28BFF025EBB2E2680E480121FFF772
:10101000EFFEE3682B44E360238B1D44258340F2FD
:10102000D913E3830120CBE7054A10230121A2F164
:101030001000FFF7DDFE40F2C713F2E70C060020B8
:10104000440600203406002010B5164B93F82240C9
:101050000CB393F82240032C1FD102B3042483F86D
:1010600022409C7A9A82240758BF4902012AC3E988
:101070000301DA824FF000044FF0010214BF522046
:1010800051209C83FFF7D4FE034610B1FFF76CFE9E
:101090002346184610BD0823FBE71123F9E7072371
:1010A000F7E700BF0C06002038B5184B154693F83B
:1010B00022202AB393F82220032A23D125B3052224
:1010C00083F822209A7A9D82140758BF490200248F
:1010D000012DC3E90301DD829C8308D12A465820F3
:1010E000FFF7A6FE08B1FFF73FFE002038BD02F073
:1010F0000702012A0FBF592001222946D720EFE716
:101100000820F3E71120F1E70720EFE70C060020A5
:10111000F0B5324C94F8222089B00D4602F0FF035E
:10112000002A57D1002957D0C278FF2A54D04178DD
:10113000FF2951D00778FF2F4ED08078FF284BD061
:1011400002F5E0764FF0A04C4FF0030E84F85820E3
:101150004CF826E0012606FA02F2CCF80825FF2218
:101160008DF803204FF60672ADF804204FF0806230
:101170008DF800008DF8021002921948194A8DF876
:1011800001706946ADF80C3001F06CF808B1FFF75A
:10119000EBFDA37A256023F00F03A372FF2384F8ED
:1011A0002830114B114884F82260CDE9043600251F
:1011B000103306932A460A2304A9079384F8235080
:1011C00001F072FA034610B1FFF7CEFD2B46184628
:1011D00009B0F0BD0823FAE70723F8E70C06002062
:1011E000744B00003512000034060020784B0000DC
:1011F00010B50E4C94F82230A3B194F82230032B92
:1012000012D10B4801F002FA94F858304FF0A04286
:1012100003F5E073002042F8230084F8230084F8EB
:10122000220010BD0820FCE71120FAE70C06002080
:10123000784B0000F7B5AD4C0146E68AC0680D7CDE
:101240003EB994F85820012393404FF0A042C2F8D1
:10125000083594F823707B1E012B6FD8496891F8EC
:1012600000C0AA1FBCF14C0FD2B200F1060303D19B
:101270004AB1EA1FD2B2C31D194615460B4645B9FD
:10128000BCF14C0F20D1013B012507E0013DEDB23F
:10129000F4E71A78FF2A01F10101F7D0022F49D1B2
:1012A000012284F823201A7812F0FE0F42D194F81C
:1012B00024308F4A0E33DBB20621A2F10A0003B0BC
:1012C000BDE8F040FFF794BD94F82230012B2FD0F9
:1012D00094F82210012204298DF80520CBB216D0F3
:1012E00004D8013B934207D903200DE0052BFBD125
:1012F00002238DF804300CE003238DF8045084F8A9
:101300002230FFF775FF20B1FFF72EFD01E08DF8C9
:10131000042094F85820012393404FF0A042C2F8D3
:101320000835032384F82230236801A8984794E005
:101330002B46B3E7002284F82320184694F8223085
:10134000D9B2013B042B00F2CD82DFE813F0050097
:101350000A00CB027801C201022384F82230002364
:10136000A383A18B0378B1F50E7F00F0D0802CD839
:1013700040F21322914272D0B1F5057F08D20029C4
:1013800061D0B1F5047F53D00023A38306216CE024
:1013900040F21922914200F08A8040F226229142C6
:1013A000F2D1580740F1E480A37A012262F30203EC
:1013B000A372238C01339BB2B3F5FA6F238440F2FE
:1013C0009B800023A38302214FE040F261229142DF
:1013D00000F0DF8015D840F24D22914200F0C88025
:1013E00040F253229142CFD113F0FC0F3AD1D0F802
:1013F00001301BBA5A0042BFA37A43F00803A3721C
:101400008BE040F26B22914200F0D580B1F51C7F59
:10141000BAD101AB10222946FFF768FD01281CD97B
:101420009DF80410002900F0D1800023A3831CE064
:10143000012200214020FFF7FBFC08B1FFF794FCDC
:1014400040F2132308E001224020FFF7F1FC08B12D
:10145000FFF78AFC4FF40473A38303B0F0BD13F0CD
:10146000FC0F18D00023A3830421002394F85820F4
:101470008DF80430032384F82230012393404FF089
:10148000A0428DF80510C2F808351A4B4FF0804283
:10149000C3F8242548E703224FF4D5714820FFF70D
:1014A000C7FC08B1FFF760FC40F21923D4E75D07E1
:1014B00007D4A27A032161F3020213F0FC0FA27297
:1014C000D0D100232384A37A03F00703032B0CBF9E
:1014D0004FF0804100210222E920FFF7A9FC08B16A
:1014E000FFF742FC40F22623B6E700BF0C060020BF
:1014F0004406002000300040022200214120FFF776
:1015000097FC08B1FFF730FC4FF40E73A4E713F01B
:10151000FC0FA7D1D9073FF54CAFA37A03F007031F
:10152000032B3AD001224FF400715020FFF780FCCA
:1015300008B1FFF719FC40F261238DE7238C0133DA
:101540009BB2B3F5FA6F23843FF63BAFA37A03F067
:101550000703032B0CBF4FF0804100210222E9203A
:10156000FFF766FC08B1FFF7FFFB40F24D2373E77E
:1015700013F0FC0F7FF476AF13F00101DED10222ED
:101580007A20FFF755FC08B1FFF7EEFB40F253233A
:1015900062E713F0FC0F7FF465AFB04BE36001220C
:1015A00000214920A282FFF743FC08B1FFF7DCFBD2
:1015B00040F26B2350E713F0FC0F7FF453AF013D73
:1015C0004FF41C730130EDB2E36122E794F8483028
:1015D0009B09012B24D0DB072FD494F84F3094F8CB
:1015E000502094F852009B0003EB921394F84E2085
:1015F000920202F440620133134494F851205200E5
:1016000002F0060202EBD01294F84D0000F00F0039
:1016100007380244934063604FF40073238104E76A
:1016200094F8513094F85020013303EB022394F8DE
:101630004F2003EB02439B02EDE70B46EBE7A38B46
:10164000B3F5267F0FD040F2A22293423AD0002B6E
:101650003BD1037813F0FC0F13D1013D4FF42673F7
:101660000130EDB2E36101AB4FF400722946FFF7A0
:101670003DFC01287FF6F1AE9DF80410A9B10023CE
:10168000A383032284F8222000220123626184F8CC
:10169000232094F858208DF804308DF805109340DD
:1016A0004FF0A042C2F808353EE6A38A012B09D9C3
:1016B00001224C20FFF7BCFB08B1FFF755FB40F2BD
:1016C000A223C9E60021A183DBE70023A38306212F
:1016D000D7E7A28BB2F53B7F00F0A38027D840F27A
:1016E000C3239A423ED0B2F5317F05D2002A41D0C1
:1016F0000023A3830621A1E040F2D3239A4202D023
:10170000B2F5397FF4D1268BE068B6F5007F76D349
:10171000534A00F500700323E0600121A2F110009C
:1017200084F82330FFF764FB4FF43B7394E6B2F583
:10173000487F4FF0000300F0B380B2F54C7F00F01B
:10174000C88040F20A318A42D2D1AB4280F08B800D
:10175000C25C002A00F0A280002384F82330013EFE
:10176000E68220E0037813F0FC0F1AD00023A38355
:10177000042163E0037813F0FC0FF9D1A37A03F09E
:101780000703012B0DD0A38A012B0AD9216901225D
:101790005920FFF74DFB08B1FFF7E6FA40F2C323EB
:1017A0005AE6A38AE382E28AA38A7AB9012B40F23D
:1017B00096802B4A4FF6FF53238502210323A2F183
:1017C0001000FFF715FB4FF4487345E60022228313
:1017D0000422012B84F823204FF0FF028CBFFC234E
:1017E000FE2384F828201E4A84F829300223194653
:1017F000A2F11000FFF7FCFA40F2D3232CE6C6F565
:101800000075ADB2F02D28BFF0250123E9B2144ACE
:101810003044FFF7EDFA238B1D4425834FF43973D1
:101820001AE694F83A3003F01F03052B4FF000023C
:1018300018D00B2B01D00D2B98D1A28302238DF849
:101840000430032384F82230002384F823306361BA
:1018500094F858208DF80510012320E75406002045
:1018600044060020228494F82330032B7FF477AFC2
:10187000238C01339BB244F620629342238403D924
:101880000023A3830221D9E7194A10230121A2F1E1
:101890001000FFF7ADFA40F20A33DDE5013354E7FB
:1018A0002384032384F82330238C01339BB244F632
:1018B000206293422384E3D80D4A10230121A2F130
:1018C0001000FFF795FA4FF44C73C5E5C25C32B9CE
:1018D0000133AB42FAD394F82330032BE4D0002138
:1018E000A183ABE7032003B0BDE8F040FFF73CBAAB
:1018F00044060020064B93F82220032A05D093F8D3
:101900002200003818BF012070470020704700BF38
:101910000C060020044890F82230022B00F104004D
:1019200098BF0020704700BF0C06002072B6024A24
:10193000136801331360704768060020034A136878
:10194000013B136003B962B6704700BF6806002010
:10195000FFF7ECBFFFF7F2BF10B5034653E8000FE7
:101960000A4643E8002494F0000FF7D110BD10B5EB
:10197000034653E8002F42EA010043E8000494F0D4
:10198000000FF6D110BD10B5034653E8000F00EA72
:10199000010243E8002494F0000FF6D110BD10B509
:1019A000034653E8002F02EB010043E8000494F0E3
:1019B000000FF6D110BD10B5034653E8002FA2EB7F
:1019C000010043E8000494F0000FF6D110BD01219E
:1019D000FFF7CDBF0021FFF7D6BF10B590B1D0E91A
:1019E000012301689B1ADBB20A60013BDBB2FF2BCB
:1019F000026802D10020107110BD11684C1C1460E7
:101A00000B70F2E70E20F7E738B504460020FFF729
:101A10009FFF226863681168994213D9481E1060BD
:101A200011F8013CE568218A01FB0355A36811798F
:101A30001B1ADBB2994200D213710020FFF78AFF14
:101A4000284638BD0025F8E738B5054600200C4685
:101A5000FFF77EFF2A681368591C1160E968641A51
:101A6000298AB4FBF1F41C70BDE838400020FFF770
:101A700071BF19B1012905D00620704702B111705C
:101A80000020704712B104301060F9E7072070475A
:101A90008069704708B5FFF72DFF0028FBD108BD0E
:101AA000F0B51B4B1B68834285B005460C4603D03E
:101AB0001124204605B0F0BD8669FFF71BFF002802
:101AC000F6D194E8070006F10C0787E80700A28822
:101AD0002168A068FFF7E8FA044640B9B36833B953
:101AE000FFF7D8FF0B4B1B78002B18BF0D24B368F2
:101AF000002BDED0002CDCD04FF48172ADF8042036
:101B0000B2690297039201A928469847D1E700BF1E
:101B10006C06002070060020F0B51B4B1B6883424A
:101B200085B005460C4603D01124204605B0F0BD13
:101B30008669FFF7DFFE0028F6D194E8070006F17A
:101B40000C0787E80700A2882168A068FFF77CFAE5
:101B5000044640B9B36833B9FFF79CFF0B4B1B78C1
:101B6000002B18BF0D24B368002BDED0002CDCD076
:101B70004FF48172ADF80420B2690297039201A973
:101B800028469847D1E700BF6C0600207006002069
:101B9000F0B5134F3B68834285B0054603D011244E
:101BA000204605B0F0BD8669FFF7A4FE0028F6D1F7
:101BB000FFF71EFB044600B93860B368002BEFD076
:101BC00001228DF80420221E18BF01228DF8052065
:101BD00000220292B269039201A928469847DFE7E2
:101BE0006C0600202DE9FF410369B3F5007F05462F
:101BF0000E4629D1DFF86080D8F8003033BB876902
:101C0000C8F80000B960BA6111491430FFF780FAD2
:101C1000044630B9A6B9FFF73DFF0E4B1B787BB1E8
:101C20000D240023C8F8003056B14FF4807202939F
:101C3000BB690393ADF80420BB6801A92846984707
:101C4000204604B0BDE8F0810624F9E71124F7E747
:101C50005D1C0000700600206C060020F0B5294ACB
:101C60004378294F137002783D68012AAC6985B02A
:101C7000064627D0022A39D0002A3CD12BB128466B
:101C8000FFF786FF08B1FFF76FF8FFF743FE036821
:101C900023604FF4007363603B689B699B687BB172
:101CA000737800229B1A18BF01238DF804208DF849
:101CB0000530A36903930292A36801A928469847B7
:101CC00005B0F0BDA268002AFAD00221003B18BF7F
:101CD00001238DF804108DF8053004F10C030293F4
:101CE000A369039301A928469047E9E7A268002A5F
:101CF000E6D00321EAE7032005B0BDE8F040FFF796
:101D000033B800BF700600206C060020826810B552
:101D100004462AB143690168006998470023A3601B
:101D200010BD0EB403B5039921B104AB01AA019310
:101D300000F076F802B05DF804EB03B070470A29B2
:101D400038B504460D4602D10D21FFF7F8FFA36810
:101D50002268591CA160D554D4E901329A4204D3B7
:101D60002046BDE83840FFF7D1BF38BD2DE9F84F18
:101D70009846DDE90A43154682460F460A464FF06B
:101D80000109AA420FD2C14538BFC14613F0010B69
:101D900001D16CB900240126B8F1010F1BD908F15B
:101DA000FF386E43F8E709F10109B2FBF5F2E8E705
:101DB0009B070ED5B8F1000F0CBF30262026A14599
:101DC000E9D2013C31465046FFF7B9FF002CF6D16D
:101DD000E0E72026F3E7B7FBF6F39D42E1D9DFF811
:101DE0003C80B7FBF6F3504618F8031006FB137758
:101DF000FFF7A5FF3346AB42B6FBF5F6F1D2BBF1D8
:101E0000000F02D00CB1A14501D3BDE8F88F20210D
:101E10005046013CFFF793FFF4E700BF9C4B0000E6
:101E20002DE9F74F054617468846002900F03E8108
:101E300018F8011B49B92B7B002B00F0378128468D
:101E400003B0BDE8F04FFFF761BF252940F0B78030
:101E5000002698F800302D2B424608F1010823D0C7
:101E6000302B24D02B2B25D000242A2B02F101016A
:101E700023D13B681A1D1B683A601C440A4613783C
:101E80002E2B26D101324FF0000A104610F8011B0C
:101E9000A1F1300CBCF1090F1DD80A2303FB0A1372
:101EA000A3F1300A0246F0E746F00106D1E746F01A
:101EB0000206CEE746F00406CBE711F8013CA3F199
:101EC00030000928DBD80A2202FB0434303C0A46E1
:101ED000CBE74FF0000A12F8011B01F0FB00682865
:101EE0009046F8D0782909D86F290CD8632962D098
:101EF00022D8252963D0582900F0888098F800302E
:101F0000002B95D197E770390829F7D801A353F82A
:101F100021F000BF87200000FD1E0000FD1E000014
:101F20001D200000FD1E0000FB1F0000FD1E000024
:101F3000FD1E00000D200000642901D06929DDD1BB
:101F40003A68D2F80090111D89EAE9723960A2EB73
:101F5000E9724FF0010B092A35DCD34538BFD3466F
:101F60002CB1B9F1000F01DB720700D5013CB307BA
:101F700002D5BAF1000F03D0F00701D44CBB002406
:101F8000B9F1000F2DDAC9F100092D212846FFF71C
:101F9000D6FE06F00302022A04D1BAF1000F01D1E5
:101FA0001CBB0024CDE9004653460A224946284678
:101FB000FFF7DCFEA2E73B681A1D19783A60284655
:101FC000FFF7BDFE9AE70A230BF1010BB2FBF3F218
:101FD000C1E7A345D4D220212846013CFFF7AFFE3C
:101FE000CCE77107D5D52B21D0E7A345DAD2302134
:101FF0002846013CFFF7A3FED2E73968CDE9004649
:102000000A1D3A6053460A220968D0E739680A1D5A
:102010003A60CDE9004653461022F5E73B681A1DA9
:102020003A6016F00106D3F8009024D1B9F1000F00
:1020300003D0484602F0A6FC0646B4421DD809F17A
:10204000FF3919F8011F00293FF458AF2846FFF760
:1020500076FEF6E728460136FFF771FE19F80610FE
:102060000029F7D1A642BFF449AF20212846013C00
:10207000FFF765FEF6E70026F0E720212846013C41
:10208000FFF75DFED9E73B681A1D3A60302128460C
:102090001C68FFF754FE78212846FFF750FE002207
:1020A0000823CDE900322146102280E703B0BDE8C5
:1020B000F08F00BF2DE9F84FB0F806A04579D2F8AF
:1020C00000B09DF828900AFB05F5043D88460BEB0F
:1020D0000301A94203F1040488BFA5EB030BB4FB81
:1020E000FAF607460AFB1644C2F800B04EB9AAEB4E
:1020F00004055D4528BF5D46BBF1000F04D1BDE876
:10210000F88F3F68013EF1E7043408EB06003C44D9
:102110002A46B9F1000F0DD02146ABEB050B02F0BA
:1021200008FCDA452E443F6855464FF0000428BFAE
:102130005D46E1E701462046EFE7FFF74EBCF8B504
:1021400046790146721E0546002393422D6803D34B
:102150000024A64202D8F8BD0133F6E70F682846EE
:10216000FFF772FC01343946F3E72DE9F843068A9C
:10217000CD1C0746FFF748FC043E35440446B5FB3A
:10218000F6F5F0B14FF48073EDB28380C680013D67
:10219000076081464FF00008A84512D23846FFF785
:1021A00033FC064648B163790133637108F10108D5
:1021B000C9F8000007608146EEE72046FFF7BFFF41
:1021C00034462046BDE8F88301210430FFF7E7BB21
:1021D00010B5012104460430FFF7EDFBC0B220B971
:1021E0002046BDE81040FFF7AABF10BD1FB50392FF
:1021F0000022009203AAFFF75DFF05B05DF804FB23
:102200001FB503920122009203AAFFF753FF05B006
:102210005DF804FB836800225A60C3E904229A60D7
:10222000DA601A60704700007FB503788DF80430DB
:102230004368029383688DF80C30C3680493036984
:10224000064A8DF81430064B01A853F8213052F895
:102250002110984707B05DF804FB00BF740600200A
:1022600080060020F0B50546174615F804CB124A43
:1022700042F82C70114A42F82C30114B0C460FCB0F
:1022800085B06E4686E80F002368009323798DF8A9
:10229000053063798DF80630A3680293002FA38977
:1022A000084AADF80C3008BF3A4663463146284626
:1022B00000F0D6F805B0F0BD8006002074060020BE
:1022C000AC4B0000292200001FB503788DF80030C8
:1022D0004368019383688DF80830C368054A039307
:1022E000054B684653F8213052F82110984705B045
:1022F0005DF804FB8C060020900600201FB50378D3
:102300008DF800304368019383688DF80830C36806
:10231000054A0393054B684653F8213052F82110C3
:10232000984705B05DF804FB8C060020900600205D
:10233000F0B5194B90F800C091F81DE043F82C203F
:10234000164B16460A6943F82C20154B03F80CE08F
:102350000C4607460FCC89B06D460FC594E80F00B8
:1023600085E80F00CDF810C0BEF1000F09D0002E97
:102370000C4A694608BF3246381D00F025FD09B0F9
:10238000F0BD002E084A694608BF324607F10C002E
:1023900000F0FCFAF3E700BF900600208C06002056
:1023A00094060020C9220000FD220000014B1B689A
:1023B000184700BF9806002038B50B4B98420C46D2
:1023C00001D0002038BD0020FFF7C2FA074B1D796D
:1023D00015B901221C601A710020FFF7BBFA002D0D
:1023E000EFD01120EEE700BF00200040980600204B
:1023F000034B984201BF034B00221A601A717047C9
:102400000020004098060020124BD3F8182182B01B
:10241000EAB10022C3F81821D3F818310193019BC7
:102420000D4BD97FFF2907D0987F01228A404FF0BA
:10243000A04148B1C1F80C2500225A771A72D3E99D
:102440000021064802B01047C1F80825F4E702B0A1
:10245000704700BF00300040A0060020A806002002
:102460002DE9F74F90F80480644E01924FF0240953
:1024700009FB08F906EB090B9A469BF81C30074646
:102480000C46002B40F0B58005685D492846FFF7F3
:1024900093FF002840F0AF80019B46F80930CBF84D
:1024A00004A094F800E094F80CC04FF0A04201237F
:1024B00003FA0EF3BCF1010F94BFC2F80C35C2F859
:1024C00008350EF5E073012142F823106378FF2BE5
:1024D0001FBF9940C2F80C1503F5E0714FF00309D6
:1024E00018BF42F82190A27808BF4FF0FF33FF2AAF
:1024F0001FBF02F5E0714FF0A04A4FF0040B4AF8FD
:1025000021B04FF0240101FB086618BF914686F800
:102510002020E2783949F27708BF4FF0FF39FF2ACF
:1025200017D094F804A04FF0010B0BFA02FB4FF008
:10253000A046BAF1000F4ED0C6F80CB502F5E07215
:102540004FF0030B46F822B0242202FB081282F857
:102550001EA0C5F808E5C5F80C35A368C5F81095A8
:10256000C5F82435637B003B18BF0123BCF1020F83
:1025700034D0BCF1030F34D0BCF1010F01D143F0D2
:102580000203C5F85435A379C5F8C0350723C5F84B
:102590000035019BABB13B68627943F307355201CB
:1025A000002DC3F30733D2B21EDB164C661986F832
:1025B000002301226D0903F01F0302FA03F344F81C
:1025C0002530242303FB081100234B7701230B77CD
:1025D00003B0BDE8F08FC6F808B5AFE743F00403D9
:1025E000CFE743F00603CCE7074C03F00F03E254B8
:1025F000E7E70820ECE71120EAE700BFA00600208B
:102600000924000000E100E014ED00E070B5057958
:10261000224C24236B43E35893B103681A0B43F312
:102620000733002B0CDB02F01F015B0901228A40FB
:1026300020331B4941F82320BFF34F8FBFF36F8F27
:1026400024236B43E218E35800687BB1154BC0F8B4
:102650000833537F53B101234361D0F80431002B79
:10266000FBD0242303FB054300225A77242303FBDA
:102670000543002693F82030FF2B1FBF03F5E073BE
:102680004FF0A042022142F82310C0F80065FFF786
:10269000AFFE242303FB0544267770BDA00600206F
:1026A00000E100E0520108002DE9F3410779474EAF
:1026B00024237B431446F2180D46517F8646002999
:1026C00040F08180F35823B114F0140F04BF0123AC
:1026D000537795E80F004FF0240C0CFB076C0CF1BE
:1026E0000C0888E80F009CF81F20FF2A08D09CF8EF
:1026F0001E10012393404FF0A042C1B1C2F808352B
:10270000296821B101F06043B3F1005F06D1AA68E6
:1027100082B102F06043B3F1005F0BD0242303FBCE
:10272000076600237377102002B0BDE8F081C2F87D
:102730000C35E5E7DEF800306868C3F84415C3F8E7
:102740004805E968C3F834250022C3F83815C3F8F2
:102750001821D3F818210192019A14F0010218BF30
:102760000122C3F8502514F0020218BF0122C3F859
:10277000402522075CBF01221A6124227A43B25805
:10278000B2B9D3F81821002AFBD0242303FB076633
:10279000F27FFF2A07D0B07F012393404FF0A04281
:1027A00018B1C2F80C350020BEE7C2F80835BBE707
:1027B00014F004004FF0400202D0C3F80823F2E7FF
:1027C000C3F80423B0E71120AEE700BFA006002045
:1027D0000023435082B043580193019B02B07047DD
:1027E0000A4610B54FF48E71FFF7F2FF136A916835
:1027F000C95C136A01331362C0F81C1510BD8B69E4
:102800000A4610B54FF4847123B9FFF7E1FFD0F801
:10281000183510BDFFF7DCFF536AD168D0F81805F2
:10282000C854536A01335362F3E700001FB5012314
:102830008DF80030044BCDE90110D3E90012684651
:10284000904705B05DF804FBC406002030B54D4D3F
:10285000D5F804339A0585B051D5D5F82431002B2D
:102860004DD04FF492712846FFF7B2FF4FF4017339
:10287000C5F80833444B93F829200AB901226A604D
:10288000404902228DF80020D1F88024C1F880242C
:1028900003929A690292DA6801920022C3E9062241
:1028A0006846D3E9001290473648D0F81C315BB136
:1028B000354A5169136A99424DD992F82830002B54
:1028C00049D11146FFF78CFF2E48D0F84431002B38
:1028D00056D04FF4A271FFF77BFF2B4B93F82920C2
:1028E0000AB1012202609A69002A49D0586AD9685F
:1028F00000229A6105B0BDE83040FFF797BFD5F8D8
:1029000004335B07D0D5D5F80831002BCCD01E4C52
:102910001C482146FFF773FF636AA2699A42C3D13C
:10292000E369E1684BB1A3612369E3600023606A56
:10293000E3616362FFF77AFFB6E794F829300BB9D9
:1029400001236B600F4B4FF40172C3F8082300237F
:10295000606AA361EEE70B484FF48E71FFF738FF12
:102960005369002BB0D051690291002391688DF812
:102970000030019153616846D2E900139847A3E7FC
:1029800005B030BD00200040C40600202DE9F8430A
:10299000534D90F804802C2303FB0853064693F80C
:1029A0002A300C469146002B40F096804D49006835
:1029B000FFF702FD0746002840F09080226830684B
:1029C000511C0BD04FF0A04101239340C1F80835B2
:1029D00002F5E0734FF0030C41F823C061684B1C13
:1029E0001FBF01F5E0734FF0A04C4FF0000E4CF804
:1029F00023E0A369C0F8243594F814C0637DBCF1CA
:102A0000010F4CEA0303C0F86C35C0F81415C0F888
:102A10000C251DD1A268531C1FBF02F5E0734FF0B7
:102A2000A0414FF0000C41F823C0E368591C0BD0C3
:102A30004FF0A04C01219940CCF8081503F5E07146
:102A40004FF0030E4CF821E0C0F80835C0F810250F
:102A50002C2202FB08F2AB18C3F804902369AB5098
:102A6000B9F1000F20D04FF48E71247FFFF7B0FE34
:102A70004FF4A2713068FFF7ABFE32681A4BC2F810
:102A80000433130B42F307326101002AC9B21EDB83
:102A90001648841884F800130121520903F01F031B
:102AA00001FA03F340F8223033680422C3F800250A
:102AB0002C2303FB08530022C3E9062283F82920B4
:102AC0005A61012283F82A203846BDE8F883084A73
:102AD00003F00F03D154E7E70827F5E71127F3E7E1
:102AE000C40600204D2800008000020000E100E044
:102AF00014ED00E0F8B503680579304C0022C3F806
:102B000000252C2202FB05425268A2B12C4AC3F8D0
:102B100008231A0B43F30733002B0CDB02F01F01D1
:102B20005B0901228A402033264941F82320BFF364
:102B30004F8FBFF36F8F0068D0F80C65D0F8141575
:102B4000D0F80835D0F810254FF0FF37BE42C0F856
:102B5000147518BF06F5E076C0F80C75C0F8087556
:102B6000C0F810751EBF4FF0A0474FF0020C47F899
:102B700026C04E1C1FBF4FF0A04601F5E071022792
:102B800046F82170511C1FBF4FF0A04102F5E072C2
:102B9000022641F822605A1C1FBF03F5E0734FF074
:102BA000A042022142F82310FFF722FC2C2303FB52
:102BB0000544002384F82A306360F8BDC406002071
:102BC0008402020000E100E00279044B2C2101FBA9
:102BD00002335869003818BF01207047C40600202E
:102BE0002DE9F84F064690F8048089469246FFF793
:102BF000EBFF044600283CD1204F2C2508FB057B29
:102C00004FF48E71CBF814A0CBF80890CBF82000CD
:102C10008BF828003068FFF7DBFD30680123836004
:102C20005946FFF7DDFDDBF804305D461BBB30681D
:102C3000DBF814402B6A9C4211D83368D3F81C216E
:102C4000002AFBD00122DA6000202C2303FB087746
:102C500000237B61BDE8F88F95F828303BB9D0F8A8
:102C60001C31002BF8D05946FFF7BAFDE2E70F20E0
:102C7000EBE71120EEE72046ECE700BFC40600209A
:102C80000023435082B043580193019B02B0704728
:102C90001FB501238DF80030044BCDE90110D3E9B5
:102CA00000126846904705B05DF804FBF00600206E
:102CB0007FB5434AD2F82461002E60D010464FF40D
:102CC0009271FFF7DDFF02238DF80030D2F88034D7
:102CD000C2F880340393D2F83C350293394BDA685A
:102CE00001920022C3E906226846D3E90012904708
:102CF0003348D0F8443173B14FF4A271FFF7C0FFED
:102D0000304B9A693AB10022C3E90622D968D0F85B
:102D10003C05FFF7BDFF2A48D0F82031ABB14FF496
:102D20009071FFF7ADFF0123C360264B5A6962B172
:102D3000D0F84C150291002299688DF8002001917D
:102D40005A616846D3E9001290471D48D0F85831BF
:102D50009BB14FF4AC71FFF793FF1A4B5A6962B104
:102D6000D0F84C150291002299688DF8002001914D
:102D70005A616846D3E90012904704B070BDD2F89A
:102D80001031002BB4D04FF488711046FFF778FF54
:102D90000C4BD2F83C0599698842A9D1DC69D96805
:102DA00064B1D2F8005225F02005C2F800521A6929
:102DB0009C61DA60DE61FFF76BFF99E79C61FAE7DF
:102DC00000200040F00600202DE9F8435A4E90F80C
:102DD0000480242303FB0863044693F820300D4647
:102DE0009146002B40F0A38054490068FFF7E4FAB5
:102DF0000746002840F09D802A682068511C0BD0AF
:102E00004FF0A04101239340C1F8083502F5E0736B
:102E10004FF0030C41F823C069684B1C1FBF01F53C
:102E2000E0734FF0A04C4FF0000E4CF823E0AB697C
:102E3000C0F8243595F814C06B7DBCF1010F4CEA45
:102E40000303C0F86C35C0F80C25C0F814151DD16B
:102E5000AA68531C1FBF02F5E0734FF0A0414FF06A
:102E6000000C41F823C0EB68591C0BD04FF0A04C6C
:102E700001219940CCF8081503F5E0714FF0030EDD
:102E80004CF821E0C0F80835C0F81025242202FBD8
:102E900008F2B318C3F804902B69B350B9F1000FCE
:102EA0002FD04FF488712A7FFFF7EAFE20684FF495
:102EB0009071FFF7E5FE20684FF49271FFF7E0FE96
:102EC00020684FF4A271FFF7DBFE4FF4AC7120686D
:102ED000FFF7D6FE23681A49C3F80413190B43F30E
:102EE00007335201002BD2B21CDB1648C51885F8F7
:102EF000002301225B0901F01F0102FA01F140F8F1
:102F0000231023680822C3F80025242303FB086646
:102F10000023C6E906337361012386F82030384662
:102F2000BDE8F883084B01F00F015A54E9E7082780
:102F3000F5E71127F3E700BFF0060020B12C0000F1
:102F40001003420000E100E014ED00E0F8B5444C4D
:102F50000579242303FB054302465B680068ABB197
:102F6000404BC0F8083340F30733002B4FEA1031D1
:102F70000CDB01F01F065B090121B14020333A4E02
:102F800046F82310BFF34F8FBFF36F8FD0F8003296
:102F900023F02003C0F80032242303FB05439B6980
:102FA0002BB14FF4A271FFF76BFE012343604FF486
:102FB000AC71FFF765FE0123C360242303FB0543C7
:102FC000D0F858110029FBD0996919B1D0F84411F3
:102FD0000029F5D00023C0F800351368D3F80C752C
:102FE000D3F81465D3F80825D3F810154FF0FF3C3B
:102FF0006745C3F80CC518BF07F5E077C3F814C5DB
:10300000C3F808C5C3F810C51EBF4FF0A0434FF06A
:10301000020C43F827C0771C1FBF4FF0A04306F5F2
:10302000E076022743F826704E1C1FBF01F5E071C1
:103030004FF0A043022643F82160531C1FBF4FF0FE
:10304000A04302F5E072022143F82210FFF7D0F905
:10305000242303FB0544002384F820306360F8BD7B
:10306000F00600201003420000E100E00279044B6A
:10307000242101FB02335869003818BF0120704732
:10308000F006002001F06043B3F1005F2DE9F04746
:103090000646884692463BD190F80490FFF7E6FF3B
:1030A0000446002836D11D4F3068242505FB0975DC
:1030B0004FF49071C5F814A0C5F80880FFF7E0FD43
:1030C0004FF4AC713068FFF7DBFD33686A69A968BB
:1030D000C3F84415C3F8482501229A606A68DAB932
:1030E000D3F82021D3F858011AB90028F8D00F20BE
:1030F00007E00028FBD10122DA60D3F85821002A2A
:10310000FBD0242303FB097700237B61BDE8F08714
:103110001020FBE71120F9E72046F7E7F006002032
:103120002DE9FF410120FDF700FE00210846FDF7D3
:103130006DFA08B1FDF718FEFDF7ACF94A4D4B4B9F
:103140004B49ED1AED082D0445F003042046FDF728
:10315000F3FB4848012100F0F3F920464649FDF70A
:10316000EBFB002000F0CAF868B1002000F0C6F8C0
:1031700048B1002000F0C2F828B140492046FDF7D0
:10318000DBFB20BFFDE73E4B3E485F69B847426826
:103190003C484FF48016B6FBF2F6B8473A4902684D
:1031A000B2FBF6F22046FDF7CBFB38492046FDF78F
:1031B000C3FB37493748012200F08CFF08B136497C
:1031C000DCE736492046FDF7B7FB3549354801F0C5
:1031D0009DF958B9344EDFF8CC8006F10907324921
:1031E000404601F0C6F918B13049C7E73049C5E794
:1031F000737A45F0050073B92549FDF79DFB2D490C
:103200002046FDF799FB2C492C48332200F088FF1B
:10321000A8B12B49B2E7337ADB0609D529490190D9
:103220003A46FDF78DFB737A0198002BD7D1E3E77F
:103230003268254901903B46FDF78BFBF3E72349B4
:103240001E4803AB102201F04CF838B1204920464B
:10325000FDF772FB194801F04CF992E7039A1D49FA
:103260002046FDF76DFBF5E7044A0000E449000045
:10327000D04B00001C000020E74B0000044C000075
:10328000844B0000484D0000204C0000304C0000F2
:10329000834A000080090020434C0000514C00008C
:1032A000674C00001407002068090020834C0000D0
:1032B000694C00009A4C0000B84C00004007002008
:1032C000DA4C0000C34C0000D14C0000054D00005A
:1032D000164D0000264D00000B78032B09D8054B36
:1032E000087A1B680C2200FB02334A781A7200220B
:1032F0009A727047CC0B002020BF704738B5194B2D
:103300001B78834202462BD9174D00EB40032968F6
:103310009C0001EB8303085910B3597AC90702D402
:10332000587AC0B238BD596809B9104959600121AD
:10333000997203680E491B68984720B12B68234493
:10334000EEE75B6898472B6823449A7A002AF8D105
:103350001A7A002AF2D15A7A02F0FE025A72EDE786
:103360000320DFE7D00B0020CC0B0020F932000057
:10337000D9320000074B1B78834281BF064B1B6884
:1033800000EB400003EB800086BF407AC0B2012012
:10339000704700BFD00B0020CC0B0020F0B51546C5
:1033A0001C4A1278824285B02FD9002B2DD01A4F9B
:1033B00000EB40003A68860002EB8000945934B379
:1033C000427AD20723D4CDE90153012303918372BA
:1033D000236820465B69984703689D4202D3012019
:1033E00005B0F0BD236801A99B68204698470028D6
:1033F000F5D13B6833449A7A22B9187A003818BF5D
:103400000120EDE75B689847F3E70420E8E7032035
:10341000E6E700BFD00B0020CC0B0020F0B515462E
:103420001F4A1278824285B033D9002B31D01D4F0C
:1034300000EB40003A68860002EB80009459002CB3
:1034400029D0427AD20726D4427A520725D4CDE930
:103450000153012303918372236820465B699847D7
:1034600003689D4202D3012005B0F0BD236801A985
:10347000DB68204698470028F5D13B6833449A7AA8
:1034800022B9187A003818BF0120EDE75B68984729
:10349000F3E70420E8E70320E6E70220E4E700BFC3
:1034A000D00B0020CC0B002073B5234B1B7883423C
:1034B0000D46144639D901291CD0022928D00123F0
:1034C000002934D100EB40001C4E8DF807308400F9
:1034D0003368185903680DF107021B6900219847EA
:1034E00008B1112803D19DF80730002BF0D12846F0
:1034F00002B070BD114B00EB40001B6853F8200078
:10350000B8B103685B699847036823600025EEE75C
:103510000A4B00EB40001B6853F8200048B10368D9
:103520005B69984743682380F0E70425DFE71D4681
:10353000DDE70325DBE700BFD00B0020CC0B00202C
:10354000024B1860024B1970704700BFCC0B002073
:10355000D00B0020006870470B0A017043700B0C01
:10356000090E8370C1707047024400F8011B90423D
:10357000FBD1704743690239023B8B4283BF4389C9
:10358000806A01FB030000207047C2F307238A769C
:10359000CB760378032B01BF120C0A75120A4A7509
:1035A0007047026810B552B111460B4611F8014B35
:1035B000202C0CD93A2CF8D1511C8B4202D04FF060
:1035C000FF3005E01278302AF9D101330360002082
:1035D00010BD38B50D46044618B9002309202B60EC
:1035E00038BD0368002BF8D01A78002AF5D0D988A6
:1035F00082889142F1D15878FFF7BCFE10F00100AB
:10360000EBD12368EBE701380A4411F8013B00F8DD
:10361000013F9142F9D170472DE9F041C66A00F1AE
:10362000300804460123407832464146FFF7F6FE53
:103630000546A8B9236AA269E070F31A934202D240
:10364000A778012F02D82846BDE8F081A3696078E9
:103650001E44324601234146FFF7E0FE013FF0E7FA
:103660000125F0E7C3780BB1FFF7D6BF18467047C6
:1036700038B5C36A8B4205460C4610D0FFF7F2FFFF
:1036800060B922466878012305F13001FFF786FE14
:1036900000281CBF4FF0FF340120EC6238BD002031
:1036A000FCE70000002310B5C3704FF0FF33C36286
:1036B0000446FFF7DDFF034618BBB4F82E124AF6A6
:1036C000552291421FD194F83020E92A05D0226B6F
:1036D0000F4902F0FF128A4217D104F16600FFF78A
:1036E00039FF0C4A20F07F40904208D004F182005C
:1036F000FFF730FF02F14C52904218BF02231846E8
:1037000010BD0423FBE70323F9E70223F7E700BF1B
:10371000EB009000464154002DE9FF4100230B606F
:103720000F461546FFF73DFF061EC0F210818B4B7A
:1037300053F82640002C00F00C813C60237805F003
:10374000FE056BB16078FFF715FEC10708D41DB107
:1037500010F0040500D00A25284604B0BDE8F08129
:103760000023F0B223706070FFF7C8FDC20700F1BC
:10377000F2800DB14307EED400212046FFF792FFFF
:10378000022840F0C8806F4604F5FB7304F236212E
:103790003A4613F8040C10B11846FFF7DBFE10335D
:1037A0008B4242F8040BF4D1002557F8046B002E2D
:1037B00000F0A88031462046FFF774FF012800F290
:1037C000A280B4F83B30B3F5007F40F0A880B4F895
:1037D000461021B904F15400FFF7BCFE014694F8ED
:1037E0004030A1615A1E012AA37000F2988094F81B
:1037F0003D506581002D00F092806A1E2A4240F003
:103800008E80B4F84180A4F8088018F00F0F40F0C3
:103810008680B4F8430018B904F15000FFF79AFE0F
:10382000E78F002F7BD001FB03FE07EB181CF4444D
:10383000604574D3A0EB0C02AA42B2FBF5F36ED341
:103840004FF6F57293426ED840F6F575AB428CBFD9
:1038500002250125023337440CEB0602032D636178
:10386000E6612762A26260D1B4F85A2052EA0802E7
:1038700055D104F15C00FFF76DFE9B00606203F21E
:10388000FF13B1EB532F4AD34FF0FF33C4E9033397
:10389000032D4FF0800323712BD1B4F86030012B3E
:1038A00027D1711C2046FFF7E3FE10BBB4F82E228F
:1038B00020714AF655239A421BD104F13000FFF7DC
:1038C00049FE274B984214D104F50570FFF742FEDC
:1038D00003F1FF5303F500532033984209D104F557
:1038E0000670FFF737FE206104F50770FFF732FE20
:1038F000E0601C4A2570138801339BB21380E3807B
:10390000002529E703200135042D7FF44EAF04285C
:1039100005D1012520E70428FBD0012801D90D2578
:103920001AE700264DE7032594E7B8F1000FF6D01B
:10393000022D4FEA430218BFD218774418BF03F094
:10394000010367620CBF134603EB520397E70B2595
:1039500002E70C2500E70325FEE600BFD40B00209C
:1039600052526141D80B002001292DE9F04706464B
:103970000C46174673D943698B4270D90378022BE2
:103980003FD0032B50D0012B69D101EB5108016AC4
:1039900001EB5821FFF76CFE054638BB06F13009F4
:1039A00008F1010AC8F3080814F001041FBF19F850
:1039B000083003F00F023B0103F0F00314BF134380
:1039C000FBB209F80830316A0123F37001EB5A2188
:1039D0003046FFF74DFE054640B9CAF3080A44B128
:1039E000C7F3071709F80A700123F3702846BDE8EA
:1039F000F08719F80A30C7F3032723F00F031F439A
:103A0000F0E7016A01EB1421FFF732FE05460028BA
:103A1000ECD1640006F1300304F4FF7418191F554B
:103A2000C7F307274770DFE7016A01EBD411FFF7FF
:103A30001FFE05460028D9D1A40006F1300304F486
:103A4000FE741C442046FFF785FD27F0704700F008
:103A5000704047EA00012046FFF77EFDC4E70225DB
:103A6000C4E7F8B50446FFF7FDFD0546002842D13E
:103A70002378032B37D12779012F34D104F1300675
:103A800001464FF4007230465523FFF76DFD84F870
:103A90002E32AA2384F82F3252234122722184F835
:103AA000303084F83130612384F8323084F81732B2
:103AB00084F8332084F8141284F8151284F816223E
:103AC000216904F50670FFF747FDE16804F507700A
:103AD000FFF742FDE26960780132E2623B4631461F
:103AE000FFF79CFC2571002260781146FFF7DCFC93
:103AF000003818BF0120F8BDF8B500230246451E66
:103B00001C462E2615F8010F202804F101040AD0C6
:103B1000052808BFE520092C02BFCF1801337E72AB
:103B2000CF18013378720B2CECD10B440020587263
:103B3000D37A0B7202F11C00FFF70CFD086002F152
:103B40001600FFF707FDC880000C8880F8BD032829
:103B50004B8B04BF8A8A43EA024318467047012907
:103B6000F8B506460C464ED9436999424BD20378C4
:103B7000022B29D0032B34D0012B44D101EB51056A
:103B8000016A01EB5521FFF773FD10B14FF0FF30D3
:103B9000F8BD6F1C316AC5F30805354401EB5721A8
:103BA000304695F83050FFF763FD0028EED1C7F39B
:103BB00008073E44E30796F8300045EA00204CBF72
:103BC0000009C0F30B00E3E7016A01EB1421FFF7E2
:103BD0004FFD0028DAD1640004F4FF742644308ECF
:103BE000D6E7016A01EBD411FFF742FD0028CDD1E1
:103BF000A40006F1300004F4FE742044FFF7AAFC90
:103C000020F07040C4E70120C2E737B50C46012C14
:103C1000054611462BD943699C4228D222B14FF068
:103C2000FF32FFF7A1FE40B9214628460194FFF775
:103C300096FF0199044610B9002003B030BD012859
:103C400015D0431C15D000222846FFF78DFE002812
:103C5000F3D1D5E90432911E8B4205D201332B6199
:103C60002B7943F001032B719442DDD3E4E702206A
:103C7000E3E70120E1E7F8B505460F4671B9C668EC
:103C8000DEB143699E4228BF012634466B69013488
:103C90009C4215D3012E12D8002405E0FFF75FFFE8
:103CA0000128044602D801242046F8BD431C2FD029
:103CB0006B699842F8D33E46E7E70126E5E7022420
:103CC00021462846FFF74BFF30B10128EBD00130E9
:103CD0001ED0A642DAD1DFE74FF0FF322146284658
:103CE000FFF742FE90B957B9D5E90432023A934240
:103CF000EC6010D32B7943F001032B71D4E72246FB
:103D000039462846FFF730FE0028EDD00128CAD1F9
:103D10004FF0FF34C8E7013B2B61EBE7826838B511
:103D200000230568036104469AB92B78022B01D958
:103D30006B6A6BB92B890BB9022038BD6B6AA36122
:103D4000A3696261002BF7D03035E5610020F4E70C
:103D50001A466B8963B911462068FFF700FF431CC0
:103D600002460BD00128E7D96B699842F3D3E3E709
:103D700011462846FFF7FEFBA061E1E70120DCE7E2
:103D800003692DE9F04703F12008836905468A4657
:103D900093B1B8F5001F0FD2C8F308090468B9F150
:103DA000000F4DD141690133836139B92389B3EBE8
:103DB000581F45D80023AB6104200BE06789013F01
:103DC00017EA58273CD12046FFF7C9FE01280646CE
:103DD00002D80220BDE8F087421C01D10120F9E79A
:103DE0006369834226D8BAF1000FE3D06969286875
:103DF000FFF741FF0646002835D00128E9D0431CD3
:103E0000ECD02046FFF72EFC01460028E6D104F155
:103E100030004FF40072FFF7A7FB31462046FFF752
:103E2000A9FB4FF0010AE06263899F420FD3E36A66
:103E3000DB1BE3626E6131462046FFF79BFBA86106
:103E400030344C44C5F81080EC610020C2E784F89F
:103E500003A02046FFF7E0FB0028BFD1E36A01334F
:103E60000137E362E0E70720B4E700002DE9F04105
:103E7000066880460C4611F8013B2F2BFAD05C2BCC
:103E8000F8D00023C8F8083023781F2B55D908F143
:103E900020050B2228462021FFF766FB0022104652
:103EA0000827235C202B00F1010108D92F2B01D01A
:103EB0005C2B4CD1605C2F2847D05C2845D00C444B
:103EC000002A5ED098F82020D8F80070E52A04BFB8
:103ED000052288F82020212B34BF0423002388F8F2
:103EE0002B304046FFF71AFF002865D1D8F818108C
:103EF0003846FFF7BDFB00285ED1D8F81C201378A8
:103F0000002B64D0D37A03F03F0388F80630D37ACD
:103F100013F008000CD102F10B0C294612F8013BFA
:103F200011F801EB6245A3EB0E0343D0002BF5D053
:103F300000214046FFF724FFD6E7802388F82B3086
:103F40004046BDE8F041FFF7E9BE0131B2E72E2B54
:103F500054D0974215D903F17F0C5FFA8CFCBCF169
:103F60001E0F10D903F1200C5FFA8CFCBCF11C0F62
:103F700009D9DFF8A4C01CF8010B002843D0834204
:103F8000F9D1062021E014F801C0ACF140013E292E
:103F900000F1020003D98CF080017C29F1D8791E50
:103FA0008A42EED2511CAB5405F801C002320146E0
:103FB000084676E7002BBBD198F82B3048B104288F
:103FC00003D113F0040F08BF0520BDE8F0810420E1
:103FD000F2E75A07F9D498F80630DB060CD5D8F882
:103FE0001010307806F13003C1F308011944FFF7CF
:103FF000AEFDC8F808004CE70520E6E70B2FC0D05F
:1040000008220B27D4E7A3F16100192801D8203B2F
:10401000DBB2AB540132CBE7644D000038B5056824
:1040200004460420A16909B9A8B11CE02846FFF79D
:104030001FFBC0B9E3691A78C2B1DB7AE52A03F045
:104040003F03A37109D02E2A07D00F2B05D023F0F0
:104050002003082B01D0002038BD00212046FFF7A7
:104060008FFE0028DED00023A361F5E70420FAE7E5
:1040700070B506680546FFF751FE044628BBA969DE
:104080003046FFF7F5FA0446F8B9EB691B78E52BE3
:1040900014D1A9693046FFF7EBFA044660B901462E
:1040A0002022E869FFF760FAE8690B2205F1200198
:1040B000FFF7A9FA0123F370204670BD002BE8D06A
:1040C00001212846FFF75CFED7E7042C08BF072430
:1040D000F2E700001FB5CDE9001003A814460391D4
:1040E000FFF75FFA031E15DB0C4A52F8231009B1E3
:1040F00000200870019808B10021017042F82300E7
:1041000030B1012C08D1002201A96846FFF704FB59
:1041100004B010BD0B20FBE70020F9E7D40B002012
:104120002DE9F0438FB0174601910446002800F0B6
:10413000D68002F03F052A4602A901A8FFF7ECFA53
:104140000646002852D1029B0199039303A8FFF76A
:104150008DFE20B99DF93730002BB8BF062017F02F
:104160001C0F00F09C80002847D004283ED103A8F3
:10417000FFF77EFF002839D145F008050A9BDDF8DE
:1041800008900027212148225A749F73DF73197405
:104190000A9B5A769F75DF7519760A9B2022DA7280
:1041A0000A9999F80000FFF7D2FC3A468046484643
:1041B000FFF7EBF90A9B1F775F779F77DF77029B0B
:1041C0000122DA70B8F1000F20D00398D3F82C90B8
:1041D0003A464146FFF719FD40B902984946FFF7B4
:1041E00047FA029A08F1FF33D36078B100232360C5
:1041F000064630460FB0BDE8F0839DF8123013F04C
:10420000110F56D1780764D43907B7D4029F290714
:10421000FB6A0A9923626162387848BF45F040051D
:10422000FFF795FCA06001F11C00FFF793F9002156
:10423000FB88276004F12807E0604FF40072A38038
:1042400025746174E16161613846FFF78DF9AA0652
:10425000CFD5D4F80C80B8F1000FCAD0029BA1686A
:104260005D89C4F814806D02454524D30020A16106
:104270000028BBD1C8F30803002BBAD0029D284602
:10428000FFF778F948B300EB5822E2616878012320
:104290003946FFF783F80028ABD00120A6E70028B5
:1042A000A4D19DF81230DA0615D4BF07AED5D807D1
:1042B000ACD507209AE72068FFF751FC012801469A
:1042C000A8EB050803D9431CCED10120CFE702207B
:1042D000CDE708208AE7042088E7022086E7092640
:1042E00087E72DE9F04F994685B000238846C9F845
:1042F000003003A904461646FFF76BF9054620BBBC
:10430000657C15BB237C9A0740F1AA806369F34260
:1043100028BFDE4304F1280A9EB16369C3F3080293
:10432000002A40F08B80039A5789013F17EA5327F0
:104330001ED173B9A06870B901462068FFF79BFCD5
:1043400048B9237C43F040032374284605B0BDE8F8
:10435000F08FA169F1E7012802D102256574F4E725
:10436000431C01D10125F9E7A368A06103B9A0604E
:1043700094F91030002B0CDA0398E269407801239D
:104380005146FFF74BF80028ECD1237C03F07F0364
:104390002374DDF80CB0A1695846FFF7EBF800284C
:1043A000DBD0B6F5007F07EB000235D3BBF80A106F
:1043B00007EB562088424FEA56239BF8010088BF3E
:1043C000CB1B4146CDE90023FFF728F80028C9D1CF
:1043D000E169009A019B891A99420CD24FF400724C
:1043E00008EB412150460093FFF70DF9227C009B1A
:1043F00002F07F0222745F026369E2683B446361FA
:104400009A422CBFE260E360D9F800303B44B844E4
:10441000C9F80030F61B7FE7E36993420DD0E168ED
:104420006369994209D99BF8010000920123514622
:10443000FEF7B4FF009A002894D1E2616069C0F3EE
:104440000800C0F50077B74228BF37463A464146D4
:104450005044FFF7D8F8237C63F07F032374CBE745
:10446000072572E773B501A90546FFF7B2F80446C0
:10447000002839D12B7C13F0400435D01B060CD515
:104480000198EA694078012305F12801FEF7C6FF8B
:1044900068BB2B7C03F07F032B74296A0198FFF71C
:1044A000E7F8044600BB6E6AF37A43F02003F37228
:1044B000AA6828683146FFF768F8E96806F11C0029
:1044C000FFF74AF8212333760198B47548237376B1
:1044D0000123F475B474F474C370FFF7C2FA2B7C33
:1044E00023F0400304462B74204602B070BD012423
:1044F000FAE713B50446FFF7B5FF28B901A920462E
:10450000FFF767F800B9206002B010BD1FB5044680
:10451000019148B3002203A901A8FFF7FDF870B983
:10452000039B019923602046FFF7A0FCF0B994F9A2
:104530002B30002B0CDBA379DB0603D405200023F2
:1045400023600FE0039BE1691878FFF700FBA06090
:10455000039BDB88A3802046FFF7E0FB0428EDD017
:104560000028ECD104B010BD0920FBE70428E5D0F9
:10457000E5E737B50D4601A90446FFF72AF818B953
:1045800020461DB9FFF7CAFB03B030BDFFF746FD5B
:1045900010F0FB03F8D16B72A3691BB1E0692946E7
:1045A000FFF7AAFA00212046FFF7EAFB042808BF1C
:1045B0000020E9E74FF08053D3F83001421C04BFDC
:1045C0004FF0704393F8E00F831F584258417047F3
:1045D0004FF0704393F8E02F062A09D1D3F8E83F53
:1045E000C3F30313033B032B02D8024AD05C70478A
:1045F000002070477B4D000008B5FFF7DBFF40B19E
:104600004FF080538F4AD3F82433C3F30423C2F806
:104610004035FFF7DDFF10B18B4B8C4A5A67FFF72F
:10462000C9FF48B14FF080534FF08042D3F8443275
:10463000C3F34233C2F83C35FFF7CAFF30B1844AB6
:10464000D2F8FC3023F08073C2F8FC30FFF7B2FFE1
:1046500040B14FF080430022C3F80C21C3F8102171
:10466000C3F83825FFF7B4FF20B14FF08043032291
:10467000C3F8A025FFF7ACFF60B1764B0522C3F865
:1046800010260122C3F888260022C3F818263F22EC
:10469000C3F814264FF08053D3F83021511C09BFC2
:1046A0004FF07043D3F8343193F8E02FD3F8E83F5C
:1046B00008BFC3F30313062A4DD1033B032B03D8D2
:1046C000654AD35C002B46D04FF08052634BD2F842
:1046D0000414C3F82015D2F80814C3F82415D2F82E
:1046E0000C14C3F82815D2F81014C3F82C15D2F8FE
:1046F0001414C3F83015D2F81814C3F83415D2F8CE
:104700001C14C3F84015D2F82014C3F84415D2F88D
:104710002414C3F84815D2F82814C3F84C15D2F85D
:104720002C14C3F85015D2F83014C3F85415D2F82D
:104730003414C3F86015D2F83814C3F86415D2F8ED
:104740003C14C3F86815D2F84014C3F86C15D2F8BD
:104750004424C3F87025FFF72DFF48B14FF0805374
:104760004FF08042D3F8583203F04F03C2F8E43ED2
:10477000FFF720FF48B14FF08043D3F80024D20761
:1047800044BF6FF00102C3F800244FF08053D3F808
:104790003021062A0ED1D3F83431033B032B02D843
:1047A0002F4AD35C33B12F4AD2F83C3743F48063AD
:1047B000C2F83C37264AD2F8883043F47003C2F876
:1047C0008830BFF34F8FBFF36F8F4FF01023D3F8B4
:1047D0000022002A03DBD3F80432002B2EDA224B0E
:1047E0000122C3F80425D3F80024002AFBD04FF09F
:1047F00010221521C2F80012D3F80024002AFBD0A1
:104800004FF010231522C3F80422174BD3F80024CD
:10481000002AFBD00022C3F80425D3F80024002A84
:10482000FBD0BFF34F8F0A49104BCA6802F4E06215
:104830001343CB60BFF34F8F00BFFDE70C4B0D4A16
:104840001A6008BD0030014000C007400DF0ADBA4D
:1048500000ED00E000500040734D000000C000403B
:10486000774D00000010004000E001400400FA0510
:10487000280000200090D0037F2805D8034B185C47
:10488000034B5B5C18407047002070478C4D000064
:104890000C4E0000A0F16103192B98BF203870471F
:1048A000A0F14103192B98BF203070477F2805D80D
:1048B000034B185C034B5B5C18407047002070474B
:1048C0008C4D00000C4E0000A0F16103192B98BF25
:1048D00020387047A0F14103192B98BF2030704752
:1048E0007F299ABF017001206FF02E0070475AB1E6
:1048F0000A787F2A0AD800B1026000211960596045
:10490000501A18BF01207047002070476FF02E002A
:104910007047000008B5034B5B689B681B689847AD
:1049200008BD00BF2C00002008B50921FFF7F2FFE9
:1049300008BD844640EA010313F0030F18D18446F2
:10494000202A0BD32DE9F007B1E8F807A0E8F80713
:10495000A2F12002202AF7D2BDE8F007042A07D3EB
:1049600051F8043B40F8043BA2F10402042AF7D2B8
:10497000002A05D011F8013B00F8013B013AF9D1BA
:104980006046704700F1010110F0030F11D010F8DC
:10499000012B002A23D010F0030F0AD010F8012BAE
:1049A000002A1CD010F0030F03D010F8012B002AAE
:1049B00015D02DE970004FF001324FF0803350F8E0
:1049C000044BA4EB020525EA04051D4000D1F6E7DF
:1049D000A0F1040070BC10F8012B002AFBD1A0EB61
:0449E000010070471B
:1049E400BC4B000000000000C04B000000000000B1
:1049F400C54B000000000000CA4B0000000000008E
:084A0400524A00000000030308
:104A0C00484B000000000000304A0000000000206D
:104A1C004000002008010020100100204800002068
:044A2C00180000006E
:104A3000756172745F6C6F675F6261636B656E64F2
:104A4000004261636B656E647320666C75736865A4
:104A50006400617070000000300500207F000000DD
:104A6000B00500201B5B313B33316D0025734C6F6B
:104A700067732064726F707065642028256429252F
:104A8000730D0A001B5B306D003C25733E202573BF
:104A90003A2000202530327800202020007C00259C
:104AA00063001B5B313B33306D001B5B313B3332AA
:104AB0006D001B5B313B33336D001B5B313B33348B
:104AC0006D001B5B313B33356D001B5B313B333677
:104AD0006D001B5B313B33376D007761726E696E21
:104AE0006700696E666F00646562756700000000AC
:104AF000844A0000A24A0000644A0000AA4A00005A
:104B0000B24A0000BA4A0000C24A0000CA4A000085
:104B1000D24A0000000000005E4B0000DA4A0000AC
:104B2000E24A0000E74A0000FFFFFFFFFFFFFFFF30
:104B3000FFFFFFFFFFFFFFFF00000000000000007D
:104B40000000D60106010000210C0000C50C000089
:104B50001D0C000011121314466174616C20657203
:104B6000726F720053797374656D2072657365742A
:104B700000000000000000000030004000000000C5
:104B800001000000E51B0000911B0000191B000044
:104B9000A11A0000731A0000911A0000303132335C
:104BA000343536373839414243444546FFFFFFFF2D
:104BB0000006FF00000000400000000050525300BB
:104BC0005350494D005541525400554152544500EF
:104BD0004641544653206578616D706C652073744E
:104BE00061727465642E00496E697469616C697ADA
:104BF000696E67206469736B203020285344432911
:104C00002E2E2E004469736B20696E697469616C85
:104C1000697A6174696F6E206661696C65642E00E3
:104C200043617061636974793A202564204D4200C4
:104C30004D6F756E74696E6720766F6C756D652E3D
:104C40002E2E004D6F756E74206661696C65642E42
:104C5000000D0A204C697374696E6720646972657F
:104C600063746F72793A202F004469726563746FC0
:104C70007279206C697374696E67206661696C650E
:104C80006421004469726563746F72792072656192
:104C900064206661696C65642E0057726974696E80
:104CA0006720746F2066696C65204E4F52444943FB
:104CB0002E5458542E2E2E004E4F524449432E54FB
:104CC0005854002020203C4449523E202020257387
:104CD0000025396C752020257300556E61626C6566
:104CE00020746F206F70656E206F72206372656133
:104CF00074652066696C653A204E4F524449432ED4
:104D00005458542E005344206361726420657861C6
:104D10006D706C652E005772697465206661696CF0
:104D200065640D0A2E00256420627974657320770E
:104D300072697474656E2E004E6F726469630053FD
:104D4000444300312E303000844B0000384D0000C9
:104D50003F4D0000434D00000002000017181916D7
:104D6000B00B0020222A2B2C3A3B3C3D3E3F5B5DA2
:104D70007C7F000000010100000001010000000034
:104D800043000000504F53495800000020202020CD
:104D900020202020206828282828202020202020AB
:104DA000202020202020202020202020481010100B
:104DB0001010101010101010101010108484848423
:104DC00084848484848410101010101010818181D8
:104DD0008181810101010101010101010101010143
:104DE00001010101010101101010101010828282D6
:104DF0008282820202020202020202020202020213
:104E0000020202020202021010101020000703200A
:104E1000041702010857104080000000804D000078
:104E2000844E0000984F000053756E004D6F6E0069
:104E300054756500576564005468750046726900D2
:104E400053617400000000004A616E004665620014
:104E50004D617200417072004D6179004A756E00BB
:104E60004A756C0041756700536570004F637400AC
:104E70004E6F76004465630000000000414D005015
:104E80004D000000BC4F0000B84F0000B84F0000BC
:104E9000B84F0000B84F0000B84F0000B84F0000F6
:104EA000B84F0000B84F0000B84F0000FFFFFFFFF1
:104EB000FFFFFFFFFFFFFFFFFFFF0000F84E0000B6
:104EC000284E0000344F0000484E00007C4E000089
:104ED000DC4E00008C4F0000E84E0000256D2F25B1
:104EE000642F2579000000002561202562202565BA
:104EF000202554202559000053756E646179004DBA
:104F00006F6E6461790054756573646179005765EB
:104F1000646E657364617900546875727364617955
:104F200000467269646179005361747572646179D5
:104F3000000000004A616E75617279004665627218
:104F400075617279004D6172636800417072696CBD
:104F5000004D6179004A756E65004A756C790041B3
:104F600075677573740053657074656D6265720062
:104F70004F63746F626572004E6F76656D62657225
:104F800000446563656D62657200000025483A253E
:104F90004D3A255300000000794800009548000074
:104FA000A1480000AD480000C9480000D5480000F5
:0E4FB000E1480000EF480000000000002E0065
:104FC00000000000FF000000000000000020004082
:104FD000000000000020004000000000484D0000DC
:104FE00000000000000100000090D0031C4E0000F3
:104FF0001C4E00001C4E00001C4E00001C4E000009
:040000030000037581
:00000001FF
